:020000040800F2
:1000000000000824CD0D0008A90A0008B10A000864
:10001000B90A0008C10A0008C90A00080000000067
:10002000000000000000000000000000D10A0008ED
:10003000DF0A000800000000ED0A0008FB0A0008C3
:10004000210E0008210E0008210E0008210E0008D4
:10005000210E0008210E0008210E0008210E0008C4
:10006000210E0008210E0008210E0008210E0008B4
:10007000210E0008210E0008210E0008210E0008A4
:10008000210E0008210E0008210E0008210E000894
:10009000210E0008210E0008210E0008210E000884
:1000A000210E0008210E0008210E0008210E000874
:1000B000210E0008210E0008210E0008210E000864
:1000C000210E0008210E0008210E0008210E000854
:1000D000210E0008210E0008210E0008210E000844
:1000E000070B0008210E000800000000210E000888
:1000F000210E0008210E0008210E0008210E000824
:10010000210E0008210E0008210E0008210E000813
:10011000210E0008210E0008210E0008210E000803
:10012000210E0008210E0008210E0008210E0008F3
:10013000210E0008210E0008210E0008210E0008E3
:1001400000000000000000000000000000000000AF
:10015000210E0008210E0008210E0008210E0008C3
:10016000210E0008210E0008210E0008210E0008B3
:10017000210E0008210E0008210E000800000000DA
:10018000210E0008210E0008210E0008210E000893
:10019000210E0008210E0008210E0008210E000883
:1001A000210E0008210E0008210E0008210E000873
:1001B000210E0008210E0008210E0008210E000863
:1001C000210E0008210E0008210E0008210E000853
:1001D000210E0008210E0008210E0008210E000843
:1001E000210E0008210E0008210E0008210E000833
:1001F000210E0008210E0008210E0008210E000823
:10020000210E0008210E0008210E0008210E000812
:10021000210E0008210E0008210E0008210E000802
:10022000210E0008210E0008210E00080000000029
:10023000210E0008210E000800000000210E000819
:10024000210E0008210E0008210E0008210E0008D2
:10025000210E0008210E0008210E0008210E0008C2
:10026000210E0008210E0008210E0008210E0008B2
:10027000210E0008210E0008210E000800000000D9
:10028000210E0008210E0008210E000800000000C9
:0802900000000000210E00082F
:1002A00010B5054C237833B9044B13B10448AFF3B0
:1002B00000800123237010BD88000024000000008E
:1002C000C468000808B5034B1BB103490348AFF3EA
:1002D000008008BD000000008C000024C4680008F5
:1002E00001F0FF01102A2BDB10F0070F08D010F8E7
:1002F000013B013A8B422DD010F0070F42B3F6D1EB
:10030000F0B441EA012141EA014122F007047FF003
:1003100000070023F0E80256083C85EA010586EA5A
:10032000010685FA47F5A3FA87F586FA47F6A5FA96
:1003300087F68EB9EED1F0BC01F0FF0102F00702A2
:1003400032B110F8013B013A83EA010313B1F8D14D
:100350000020704701387047002D06BF354603382E
:10036000073815F0010F07D1013015F4807F02BF67
:10037000013015F4C03F0130F0BC0138704700BFB8
:1003800053B94AB9002908BF00281CBF4FF0FF31FC
:100390004FF0FF3000F088B9ADF1080C6DE904CEE4
:1003A00000F006F8DDF804E0DDE9022304B0704750
:1003B0002DE9F047089D8E4604468846002B4AD119
:1003C0008A42174662D9B2FA82F64EB1C6F12003CC
:1003D00001FA06F820FA03F3B74043EA0808B440EC
:1003E0004FEA174E1FFA87FCB8FBFEF1230C0EFBF9
:1003F000118843EA084301FB0CF29A4209D9FB1821
:1004000001F1FF3080F0EA809A4240F2E780023941
:100410003B449A1AA3B2B2FBFEF00EFB102243EA51
:10042000024300FB0CFC9C4509D9FB1800F1FF328C
:1004300080F0D6809C4540F2D3803B44023840EAAD
:100440000140A3EB0C0300211DB1F3400022C5E9DC
:100450000032BDE8F0878B4205D90DB1C5E9000136
:1004600000210846F5E7B3FA83F1002946D1734528
:1004700002D3824200F20581841A6EEB030201204E
:100480009046002DE5D0C5E90048E2E7002A00F0DB
:100490009080B2FA82F6002E40F0A4808A1A030CF3
:1004A0004FEA174E80B2BCB20121B2FBFEFC0EFB3C
:1004B0001C2243EA024304FB0CF29A4207D9FB18C0
:1004C0000CF1FF3802D29A4200F2E080C4469B1A37
:1004D000B3FBFEF20EFB123340EA034302FB04F4CB
:1004E0009C4207D9FB1802F1FF3002D29C4200F275
:1004F000CA8002461B1B42EA0C40A5E7C1F1200658
:100500008B4022FA06F71F430EFA01F420FA06F395
:100510002EFA06FE4FEA1749234300FA01F81FFAA4
:1005200087FCBEFBF9F01C0C09FB10EE44EA0E44FC
:1005300000FB0CFEA64502FA01F209D93C1900F1B4
:10054000FF3A80F09C80A64540F2998002383C44F6
:10055000A4EB0E041FFA83FEB4FBF9F309FB13446A
:100560004EEA044403FB0CFCA44508D93C1903F1F2
:10057000FF3E80F08280A4457FD9023B3C4443EAA1
:100580000040A4EB0C04A0FB02EC64457346E1467A
:1005900062D35FD05DB1B8EB030264EB090404FAE7
:1005A00006F622FA01F31E43CC40C5E9006400219F
:1005B0004FE7B1FBF2FC010C41EA0E4180B240EA88
:1005C00001423B4638463C46B846BE462026B1FB73
:1005D000F7F1A2EB080241EA0C4166E7014618E791
:1005E00010462CE7C6F120022EFA02F3B740B140C4
:1005F00020FA02F24FEA174E0A43B3FBFEF8BCB2F0
:100600000EFB1833110C41EA034108FB04F9B0401A
:1006100089454FEA104380B23ED9791808F1FF3C72
:1006200001D289451FD8A1EB0901B1FBFEF909FBF5
:1006300004F80EFB191192B242EA0142424529D256
:10064000BA1809F1FF31C4D24245C2D2A9F1020160
:100650003A44BEE7F0459DD2BEEB02036CEB070CBB
:100660000138E14696E7A7EB09094944A8F1020CD5
:10067000B1FBFEF909FB04F8DBE773467FE7504660
:1006800066E70846FDE63B44023A33E7ACF1020C6C
:100690003B441CE749469CE7A1EB0901C446B1FB7A
:1006A000FEF909FB04F8C4E7704700BF80B500AF4E
:1006B00000F060F900F0E2FD00F048F800F0D4F836
:1006C00000F0BCF8002000F0ADFB012000F0AAFB18
:1006D000022000F0A7FB0121002000F06DFC184B68
:1006E0004FF4E1321A60164B00225A60144B00227C
:1006F0001A81134B00225A81114B00229A81104912
:10070000002000F0DDFC0346002B01D000F072F960
:100710000C4805F06BFA012000F0FAFB022000F013
:10072000F7FB094B1B68012BFBD1074B00221A601A
:10073000012000F017FC022000F014FCF1E700BFDC
:10074000A4000024DC680008B400002480B59CB03C
:1007500000AF07F124034C220021184605F09BFA54
:100760003B1D20220021184605F095FA022001F0D9
:10077000F3F900233B602F4BDB6A2E4A23F0010381
:10078000D3622C4BDB6A03F001033B602A4B9B696D
:1007900023F44043284A43F480439361264B9B69EA
:1007A00003F440433B603B6800BF234B9B6903F469
:1007B0000053B3F5005FF8D122237B6201233B6332
:1007C00040237B630123FB630023BB6407F1240305
:1007D000184601F0FBF90346002B01D000F00AF99E
:1007E0003F237B600023BB600023FB6000233B6151
:1007F00000237B610023BB610023FB6100233B627C
:100800003B1D0121184601F03BFE0346002B01D0A1
:1008100000F0F0F84FF480220021002001F0E6FF04
:100820004FF480220021012001F0E0FF00BF70376B
:10083000BD4680BD000400580048025880B500AF96
:10084000074B084A1A60064B00225A60044804F01D
:1008500039F80346002B01D000F0CCF800BF80BD72
:10086000B80000240018024880B58AB000AF07F134
:10087000140300221A605A609A60DA601A61394BD8
:10088000D3F8E030374A43F00403C2F8E030354B88
:10089000D3F8E03003F004033B613B69314BD3F8FC
:1008A000E030304A43F08003C2F8E0302D4BD3F8FB
:1008B000E03003F08003FB60FB682A4BD3F8E030A4
:1008C000284A43F00203C2F8E030264BD3F8E03068
:1008D00003F00203BB60BB68224BD3F8E030214A2F
:1008E00043F00103C2F8E0301E4BD3F8E03003F0D0
:1008F00001037B607B6801237B610223BB610023D2
:10090000FB6100233B620B237B6207F11403194652
:10091000154800F03DFF4FF400737B610223BB617B
:100920000023FB6100233B6200237B6207F1140379
:1009300019460E4800F02CFF4FF480737B610223B0
:10094000BB610023FB6100233B6200237B6207F154
:1009500014031946064800F01BFF00BF2837BD46A8
:1009600080BD00BF0044025800040258000802582D
:100970000000025880B584B000AF3B4600221A60E8
:100980005A609A60DA6000F027FE01233B70002372
:100990007B7000237B601F233B7287237B720023C5
:1009A000BB720023FB7201233B7301237B73002383
:1009B000BB730023FB733B46184600F045FE042042
:1009C00000F022FE00BF1037BD4680BD80B483B06A
:1009D00000AF0346FB71FB79002B02D1044B0122CF
:1009E0001A6000BF0C37BD465DF8047B704700BF3E
:1009F000B400002480B400AF72B600BF00BFFDE7B2
:100A000080B483B000AF0A4BD3F8F430084A43F007
:100A10000203C2F8F430064BD3F8F43003F00203BB
:100A20007B607B6800BF0C37BD465DF8047B704778
:100A30000044025880B5B4B000AF786007F11003ED
:100A4000C0220021184605F026F97B681B68144A6D
:100A5000934221D14FF400324FF00003C7E9042341
:100A60000023C7F8903007F11003184602F0FEF893
:100A70000346002B01D0FFF7BDFF0A4BD3F8DC3053
:100A8000084A43F04003C2F8DC30064BD3F8DC30B0
:100A900003F04003FB60FB6800BFD037BD4680BD5C
:100AA000001802480044025880B400AF00BFFDE7C0
:100AB00080B400AF00BFFDE780B400AF00BFFDE72A
:100AC00080B400AF00BFFDE780B400AF00BFFDE71A
:100AD00080B400AF00BFBD465DF8047B704780B4B2
:100AE00000AF00BFBD465DF8047B704780B400AF27
:100AF00000BFBD465DF8047B704780B500AF00F0D5
:100B00002FFC00BF80BD80B500AF002000F0C6FA0A
:100B100000BF80BD80B586B000AFF860B9607A6074
:100B200000237B610AE0AFF300800146BB685A1CDA
:100B3000BA60CAB21A707B6901337B617A697B68DB
:100B40009A42F0DB7B6818461837BD4680BD80B5F9
:100B500086B000AFF860B9607A6000237B6109E07D
:100B6000BB685A1CBA601B78184600F00BFB7B6907
:100B700001337B617A697B689A42F1DB7B681846B6
:100B80001837BD4680BD80B483B000AF78604FF0A9
:100B9000FF3318460C37BD465DF8047B704780B4C0
:100BA00083B000AF786039603B684FF400525A6000
:100BB000002318460C37BD465DF8047B704780B4AF
:100BC00083B000AF7860012318460C37BD465DF84E
:100BD000047B704780B485B000AFF860B9607A607C
:100BE000002318461437BD465DF8047B70470000AB
:100BF00080B586B000AF7860144A154BD31A7B617C
:100C00007B693B61134B1B68002B02D1114B124ACD
:100C10001A60104B1A687B6813443A699A4207D2EB
:100C200005F088F803460C221A604FF0FF3309E004
:100C3000084B1B68FB60074B1A687B681344054A26
:100C40001360FB6818461837BD4680BD00000824B5
:100C500000040000CC000024C002002480B400AFD7
:100C6000434BD3F88830424A43F47003C2F88830CB
:100C7000404B1B6803F00F03062B07D83D4B1B6846
:100C800023F00F033B4A43F0070313603A4B1B6802
:100C9000394A43F001031360374B00221A61364B87
:100CA0001A683549354B13400B60324B1B6803F013
:100CB0000803002B07D02F4B1B6823F00F032D4A8E
:100CC00043F0070313602C4B00229A612A4B002249
:100CD000DA61294B00221A62274B294A9A62264B75
:100CE000284ADA62244B284A1A63234B00225A63AB
:100CF000214B254A9A63204B0022DA631E4B224A7D
:100D00001A641D4B00225A641B4B1B681A4A23F4B9
:100D100080231360184B00221A661C4B1A681C4B68
:100D20001340B3F1005F02D21A4B01221A60124B3A
:100D3000D3F8D43003F48053002B13D10E4BD3F8E7
:100D4000D4300D4A43F48053C2F8D430124B43F2EE
:100D5000D2021A60084BD3F8D430074A23F48053E8
:100D6000C2F8D43000BFBD465DF8047B704700BFB9
:100D700000ED00E000200052004402587FEDF6EA4A
:100D8000000202020000FF01800201010010005C6D
:100D90000000FFFF088100510040005280B400AF06
:100DA000094BDB68084A43F00203D36000BF064BDF
:100DB0005B6803F40053002BF9D000BF00BFBD46B1
:100DC0005DF8047B704700BF00480258DFF838D058
:100DD000FFF7E4FFFFF742FF0C480D490D4A0023DF
:100DE00002E0D458C4500433C4188C42F9D30A4AE0
:100DF0000A4C002301E013600432A242FBD304F04A
:100E00009FFFFFF753FC70470000082400000024F8
:100E1000880000247069000888000024C0020024B3
:100E2000FEE7000080B58CB000AF0346FB710023E5
:100E3000FB62FB79002B09D0FB79012B06D0FB79F3
:100E4000022B03D06FF00103FB6255E0FB79002B0E
:100E50000FD12C4BD3F8E0302A4A43F00203C2F8FA
:100E6000E030284BD3F8E03003F002037B617B696C
:100E700021E0FB79012B0FD1224BD3F8E030214A3E
:100E800043F01003C2F8E0301E4BD3F8E03003F01B
:100E900010033B613B690EE01A4BD3F8E030194A6E
:100EA00043F00203C2F8E030164BD3F8E03003F011
:100EB0000203FB60FB68FB79134A32F81330BB6115
:100EC0000123FB6100233B6203237B62FB790F4A12
:100ED00052F8233007F118021146184600F058FC6A
:100EE000FB790A4A52F82300FB79074A32F813309B
:100EF0000022194600F0FCFDFB6A18463037BD465B
:100F000080BD00BF00440258086900080C0000249E
:100F100080B584B000AF0346FB710023FB60FB7912
:100F2000002B09D0FB79012B06D0FB79022B03D0D3
:100F30006FF00103FB600BE0FB79084A52F82300D5
:100F4000FB79074A32F813300122194600F0D0FD30
:100F5000FB6818461037BD4680BD00BF0C0000245A
:100F60000869000880B584B000AF0346FB71002318
:100F7000FB60FB79002B09D0FB79012B06D0FB79B4
:100F8000022B03D06FF00103FB600BE0FB79084AF2
:100F900052F82320FB79074931F8133019461046DF
:100FA00000F0BFFDFB6818461037BD4680BD00BF8E
:100FB0000C0000240869000880B588B000AF034623
:100FC0000A46FB711346BB712E4BD3F8E0302D4A15
:100FD00043F00403C2F8E0302A4BD3F8E03003F0CA
:100FE0000403BB60BB684FF40053FB6002237B61CA
:100FF0000223BB61BB79002B0CD100233B61FB7941
:10100000214A52F8233007F10C021146184600F02D
:10101000BFFB31E04FF488133B61FB791A4A52F869
:10102000233007F10C021146184600F0B1FBFB79A2
:10103000DB00164A1A44FB79154951F8233019464A
:10104000104600F060FBFB79DB00104A9818FB7932
:10105000104A52F823301A46002100F035FB2820B0
:10106000FB790D4A52F823300022194600F07FFA2E
:101070002823184600F095FA002318462037BD466D
:1010800080BD00BF0044025818000024D000002496
:10109000106900081C0000242000002480B582B0E4
:1010A00000AF0346FB71FB79DB00044A134418468A
:1010B00000F03EFB00BF0837BD4680BDD0000024D5
:1010C00080B584B000AF03463960FB710023FB603C
:1010D000FB79002B03D06FF00103FB6018E0FB7974
:1010E000942202FB03F30D4A1344184600F06EF8F5
:1010F000FB79942202FB03F3084A1344396818462B
:1011000000F00EF80346002B02D06FF00303FB60E3
:10111000FB6818461037BD4680BD00BFD8000024CC
:1011200080B582B000AF78603960154B1A687B6873
:101130001A603B681A687B685A607B680C225A61A7
:101140003B685B891A467B681A613B685A687B6812
:101150009A603B681B891A467B68DA603B689B890A
:101160001A467B689A617B684FF40042DA617868BE
:1011700003F00AFC034618460837BD4680BD00BF91
:101180000800002480B582B000AF7860094B1B785E
:101190001A46942302FB03F3074A9818391D4FF4AB
:1011A0007A73012203F04AFC7B6818460837BD4673
:1011B00080BD00BF6C010024D800002480B500AFC2
:1011C0000020FFF703FC00BF80BD000080B58AB09F
:1011D00000AF7860274BD3F8E030264A43F008038D
:1011E000C2F8E030234BD3F8E03003F008033B6152
:1011F0003B69204BD3F8E0301E4A43F00803C2F8A5
:10120000E0301C4BD3F8E03003F00803FB60FB68D0
:10121000184BD3F8E830174A43F48023C2F8E8307B
:10122000144BD3F8E83003F48023BB60BB684FF461
:1012300080737B610223BB6102233B620123FB615C
:1012400007237B6207F1140319460B4800F0A0FA4C
:101250004FF400737B610223BB6107237B6207F1BC
:1012600014031946044800F093FA00BF2837BD461E
:1012700080BD00BF00440258000C025880B582B007
:1012800000AF032000F068F901F01AFB0246154B8D
:101290009B691B0A03F00F031349CB5C03F01F0388
:1012A00022FA03F37B600F4B9B6903F00F030E4A96
:1012B000D35C03F01F037A6822FA03F30B4A13602E
:1012C0000B4A7B681360002000F014F80346002BE3
:1012D00001D0012302E0FFF793FB002318460837F3
:1012E000BD4680BD00440258F86800080400002490
:1012F0000000002480B582B000AF7860154B1B78E9
:10130000002B01D1012321E0134B1A68114B1B78EC
:1013100019464FF47A73B3FBF1F3B2FBF3F31846BB
:1013200000F04DF90346002B01D001230EE07B684D
:101330000F2B0AD8002279684FF0FF3000F017F920
:10134000064A7B681360002300E001231846083733
:10135000BD4680BD28000024000000242400002495
:1013600080B400AF064B1B781A46064B1B6813442B
:10137000044A136000BFBD465DF8047B704700BFA0
:10138000280000247001002480B400AF034B1B68C8
:101390001846BD465DF8047B704700BF700100240D
:1013A00080B400AF034B1B681B0C1846BD465DF8AC
:1013B000047B70470010005C80B485B000AF78609B
:1013C0007B6803F00703FB600B4BDB68BB60BA680C
:1013D0004FF6FF031340BB60FB681A02BB681A4359
:1013E000064B1343BB60044ABB68D36000BF14378D
:1013F000BD465DF8047B704700ED00E00000FA0593
:1014000080B400AF044BDB681B0A03F007031846E7
:10141000BD465DF8047B704700ED00E080B483B00A
:1014200000AF0346FB80B7F90630002B0BDBFB88CF
:1014300003F01F020749B7F906305B09012000FAE3
:1014400002F241F8232000BF0C37BD465DF8047B53
:10145000704700BF00E100E080B483B000AF0346F6
:101460003960FB80B7F90630002B0ADB3B68DAB243
:101470000C49B7F906301201D2B20B4483F80023AD
:101480000AE03B68DAB20849FB8803F00F03043B2B
:101490001201D2B20B441A7600BF0C37BD465DF87C
:1014A000047B704700E100E000ED00E080B489B00B
:1014B00000AFF860B9607A60FB6803F00703FB6176
:1014C000FB69C3F10703042B28BF0423BB61FB693D
:1014D0000433062B02D9FB69033B00E000237B6148
:1014E0004FF0FF32BB6902FA03F3DA43BB681A40DC
:1014F0007B699A404FF0FF317B6901FA03F3D943CE
:101500007B680B40134318462437BD465DF8047BC7
:101510007047000080B582B000AF78607B68013B07
:10152000B3F1807F01D301230FE00A4A7B68013BBE
:1015300053600F214FF0FF30FFF78EFF054B002265
:101540009A60044B07221A60002318460837BD46EC
:1015500080BD00BF10E000E080B582B000AF7860D1
:101560007868FFF729FF00BF0837BD4680BD80B50A
:1015700086B000AF0346B9607A60FB81FFF740FF99
:1015800078617A68B9687869FFF790FF0246B7F921
:101590000E3011461846FFF75FFF00BF1837BD46F3
:1015A00080BD80B582B000AF0346FB80B7F906303E
:1015B0001846FFF733FF00BF0837BD4680BD80B532
:1015C00082B000AF78607868FFF7A4FF0346184642
:1015D0000837BD4680BD000080B400AFBFF35F8F09
:1015E00000BF074B5B6A064A23F480335362054B06
:1015F00000225A6000BFBD465DF8047B704700BF03
:1016000000ED00E090ED00E080B483B000AF7860C2
:101610000B4A7B6843F0010353600A4B5B6A094A3B
:1016200043F480335362BFF34F8F00BFBFF36F8F1C
:1016300000BF00BF0C37BD465DF8047B704700BF9C
:1016400090ED00E000ED00E080B483B000AF786082
:101650007B685A781B4B9A601A4B1B69194A23F016
:1016600001031361174A7B685B68D3607B681B7B4F
:101670001A077B68DB7A1B061A437B689B7ADB04BC
:101680001A437B685B7B9B041A437B689B7B5B04F0
:101690001A437B68DB7B1B041A437B685B7A1B0263
:1016A0001A437B681B7A5B0013437A6812781146F1
:1016B000044A0B43136100BF0C37BD465DF8047B41
:1016C000704700BF90ED00E080B487B000AFF860D5
:1016D0000B467A60FB720023FB75FB68002B01D17F
:1016E00001230AE0FB7A002B03D1FB687A685A6079
:1016F00002E00123FB7500BFFB7D18461C37BD4689
:101700005DF8047B704780B483B000AF78603960C7
:101710007B68002B01D1012303E07B683A681A60E3
:10172000002318460C37BD465DF8047B7047000067
:1017300080B586B000AF78607B681B681B0C03F037
:1017400003037B617B681B6803F01F03012202FA1D
:1017500003F33B617B691A010C4B1344FB60FB688C
:101760001B683A691340BB60BB68002B09D0FB685B
:101770003A691A607B685B68002B02D07B685B6803
:10178000984700BF1837BD4680BD00BF880000588D
:1017900080B489B000AF786039600023FB61894B69
:1017A0007B6194E13B681A680121FB6901FA03F34C
:1017B00013403B613B69002B00F086813B685B680E
:1017C00003F00303012B05D03B685B6803F00303C0
:1017D000022B30D17B689B68BB61FB695B000322F5
:1017E00002FA03F3DB43BA691340BB613B68DA6872
:1017F000FB695B0002FA03F3BA691343BB617B68C0
:10180000BA699A607B685B68BB610122FB6902FA76
:1018100003F3DB43BA691340BB613B685B681B0998
:1018200003F00102FB6902FA03F3BA691343BB61D7
:101830007B68BA695A603B685B6803F00303032B5B
:1018400017D07B68DB68BB61FB695B00032202FA8F
:1018500003F3DB43BA691340BB613B689A68FB69D9
:101860005B0002FA03F3BA691343BB617B68BA6990
:10187000DA603B685B6803F00303022B23D1FB694A
:10188000DA087B68083253F82230BB61FB6903F049
:1018900007039B000F2202FA03F3DB43BA691340EC
:1018A000BB613B681A69FB6903F007039B0002FAFE
:1018B00003F3BA691343BB61FB69DA087B6808323A
:1018C000B96943F822107B681B68BB61FB695B0048
:1018D000032202FA03F3DB43BA691340BB613B689E
:1018E0005B6803F00302FB695B0002FA03F3BA6969
:1018F0001343BB617B68BA691A603B685B6803F499
:101900004033002B00F0E0802F4BD3F8F4302E4A08
:1019100043F00203C2F8F4302B4BD3F8F43003F059
:101920000203FB60FB68294AFB699B08023352F8FB
:101930002330BB61FB6903F003039B000F2202FA13
:1019400003F3DB43BA691340BB617B68204A9342CF
:1019500052D07B681F4A934231D07B681E4A934223
:101960002BD07B681D4A934225D07B681C4A93424A
:101970001FD07B681B4A934219D07B681A4A934256
:1019800013D07B68194A93420DD07B68184A934262
:1019900007D07B68174A934201D109232DE00A231F
:1019A0002BE0082329E0072327E0062325E0052371
:1019B00023E0042321E003231FE002231DE0012391
:1019C0001BE000BF8000005800440258000400588B
:1019D000000002580004025800080258000C025887
:1019E000001002580014025800180258001C025837
:1019F00000200258002402580023FA6902F0030272
:101A000092009340BA691343BB613849FB699B0854
:101A10000233BA6941F823204FF0B0431B68BB6121
:101A20003B69DB43BA691340BB613B685B6803F405
:101A30008013002B03D0BA693B691343BB614FF09D
:101A4000B042BB6913604FF0B0435B68BB613B6958
:101A5000DB43BA691340BB613B685B6803F4001366
:101A6000002B03D0BA693B691343BB614FF0B0420E
:101A7000BB6953607B695B68BB613B69DB43BA69E7
:101A80001340BB613B685B6803F40033002B03D059
:101A9000BA693B691343BB617B69BA695A607B6968
:101AA0001B68BB613B69DB43BA691340BB613B68A0
:101AB0005B6803F48033002B03D0BA693B6913439E
:101AC000BB617B69BA691A60FB690133FB613B68E2
:101AD0001A68FB6922FA03F3002B7FF463AE00BFA0
:101AE00000BF2437BD465DF8047B704700040058F2
:101AF00080B483B000AF78600B467B8013467B7068
:101B00007B78002B03D07A887B689A6103E07B881E
:101B10001A047B689A6100BF0C37BD465DF8047BF0
:101B2000704780B485B000AF78600B467B807B68DF
:101B30005B69FB607A88FB6813401A04FB68D94331
:101B40007B880B401A437B689A6100BF1437BD46FF
:101B50005DF8047B7047000080B584B000AF78600A
:101B6000194BDB6803F00403042B0AD0164BDB6827
:101B700003F007037A689A4201D001231FE0002393
:101B80001DE0114BDB6823F007020F497B6813430C
:101B9000CB60FFF7F9FBF86009E0FFF7F5FB0246C1
:101BA000FB68D31AB3F57A7F01D9012307E0064B0E
:101BB0005B6803F40053B3F5005FEED100231846D1
:101BC0001037BD4680BD00BF0048025880B58CB0BC
:101BD00000AF78607B68002B02D1012300F048BC85
:101BE0007B681B6803F00103002B00F08880994B91
:101BF0001B6903F03803FB62964B9B6ABB62FB6A6E
:101C0000102B07D0FB6A182B11D1BB6A03F003031A
:101C1000022B0CD18F4B1B6803F40033002B6DD0CB
:101C20007B685B68002B69D1012300F021BC7B68D5
:101C30005B68B3F5803F06D1864B1B68854A43F449
:101C4000803313602EE07B685B68002B0CD1814BE6
:101C50001B68804A23F4803313607E4B1B687D4AE7
:101C600023F4802313601DE07B685B68B3F5A02F2D
:101C70000CD1784B1B68774A43F480231360754B73
:101C80001B68744A43F4803313600BE0714B1B688C
:101C9000704A23F4803313606E4B1B686D4A23F443
:101CA000802313607B685B68002B13D0FFF76CFB0D
:101CB000786208E0FFF768FB02467B6AD31A642B60
:101CC00001D90323D4E3634B1B6803F40033002BD7
:101CD000F0D014E0FFF758FB786208E0FFF754FB00
:101CE00002467B6AD31A642B01D90323C0E3594B04
:101CF0001B6803F40033002BF0D100E000BF7B68C9
:101D00001B6803F00203002B00F0CA80514B1B69D3
:101D100003F038033B624F4B9B6AFB613B6A002B2D
:101D200007D03B6A182B56D1FB6903F00303002B45
:101D300051D1484B1B6803F00403002B05D07B688E
:101D4000DB68002B01D1012392E3424B1B6823F097
:101D500019027B68DB683F4913430B60FFF714FBF4
:101D6000786208E0FFF710FB02467B6AD31A022B69
:101D700001D903237CE3374B1B6803F00403002BDA
:101D8000F0D0FFF70DFB034641F20302934217D850
:101D90007B681B69402B08D12E4B5B6823F47C3396
:101DA0002C4A43F4003353607AE02A4B5B6823F4F7
:101DB0007C327B681B691B03264913434B606FE031
:101DC000244B5B6823F0FE427B681B691B0621499C
:101DD00013434B6064E07B68DB68002B47D01D4BEE
:101DE0001B6823F019027B68DB681A4913430B60F8
:101DF000FFF7CAFA786208E0FFF7C6FA02467B6A84
:101E0000D31A022B01D9032332E3124B1B6803F0D0
:101E10000403002BF0D0FFF7C3FA034641F203029C
:101E2000934219D87B681B69402B08D1094B5B682A
:101E300023F47C33074A43F40033536030E0054B0E
:101E40005B6823F47C327B681B691B0301491343E5
:101E50004B6025E0004402589A4B5B6823F0FE4239
:101E60007B681B691B06974913434B6018E0954B31
:101E70001B68944A23F001031360FFF785FA786228
:101E800008E0FFF781FA02467B6AD31A022B01D9D8
:101E90000323EDE28B4B1B6803F00403002BF0D10E
:101EA0007B681B6803F01003002B00F0A980854BB2
:101EB0001B6903F03803BB61824B9B6A7B61BB6982
:101EC000082B07D0BB69182B3AD17B6903F00303B9
:101ED000012B35D17B4B1B6803F48073002B05D09D
:101EE0007B68DB69802B01D00123C1E2FFF758FA40
:101EF000034641F20302934217D87B681B6A202BEA
:101F000008D1704B5B6823F0F8436E4A43F080437E
:101F1000536075E06B4B5B6823F0F8427B681B6A8B
:101F20009B06684913434B606AE0664BDB6823F00D
:101F30007C527B681B6A1B0662491343CB605FE0DF
:101F40007B68DB69002B42D05E4B1B685D4A43F027
:101F500080031360FFF718FA786208E0FFF714FABD
:101F600002467B6AD31A022B01D9032380E2554B28
:101F70001B6803F48073002BF0D0FFF711FA0346BF
:101F800041F20302934217D87B681B6A202B08D1C9
:101F90004C4B5B6823F0F8434A4A43F0804353605C
:101FA0002EE0484B5B6823F0F8427B681B6A9B0677
:101FB000444913434B6023E0424BDB6823F07C52DF
:101FC0007B681B6A1B063F491343CB6018E03D4BFF
:101FD0001B683C4A23F080031360FFF7D5F9786251
:101FE00008E0FFF7D1F902467B6AD31A022B01D928
:101FF00003233DE2334B1B6803F48073002BF0D1C5
:102000007B681B6803F00803002B36D07B685B6994
:10201000002B19D02B4B5B6F2A4A43F00103536707
:10202000FFF7B2F9786208E0FFF7AEF902467B6A83
:10203000D31A022B01D903231AE2224B5B6F03F060
:102040000203002BF0D018E01E4B5B6F1D4A23F0FB
:1020500001035367FFF798F9786208E0FFF794F9F6
:1020600002467B6AD31A022B01D9032300E2154BE7
:102070005B6F03F00203002BF0D17B681B6803F059
:102080002003002B39D07B689B69002B1CD00D4BA3
:102090001B680C4A43F480531360FFF775F97862AC
:1020A00008E0FFF771F902467B6AD31A022B01D9C7
:1020B0000323DDE1034B1B6803F40053002BF0D036
:1020C0001BE000BF004402589B4B1B689A4A23F454
:1020D00080531360FFF758F9786208E0FFF754F96E
:1020E00002467B6AD31A022B01D90323C0E1924B2B
:1020F0001B6803F40053002BF0D17B681B6803F0CE
:102100000403002B00F081808C4B1B688B4A43F446
:1021100080731360FFF738F9786208E0FFF734F94D
:1021200002467B6AD31A642B01D90323A0E1834BB7
:102130001B6803F48073002BF0D07B689B68012B35
:1021400006D17D4B1B6F7C4A43F0010313672DE0E2
:102150007B689B68002B0CD1774B1B6F764A23F072
:1021600001031367744B1B6F734A23F00403136757
:102170001CE07B689B68052B0CD16F4B1B6F6E4A74
:1021800043F0040313676C4B1B6F6B4A43F001036E
:1021900013670BE0684B1B6F674A23F0010313675B
:1021A000654B1B6F644A23F0040313677B689B68CD
:1021B000002B15D0FFF7E8F878620AE0FFF7E4F8A3
:1021C00002467B6AD31A41F28832934201D9032333
:1021D0004EE1594B1B6F03F00203002BEED014E0CD
:1021E000FFF7D2F878620AE0FFF7CEF802467B6A82
:1021F000D31A41F28832934201D9032338E14E4B7E
:102200001B6F03F00203002BEED17B685B6A002B8F
:1022100000F02D81484B1B6903F03803182B00F0A8
:10222000BD807B685B6A022B40F09E80424B1B683E
:10223000414A23F080731360FFF7A6F8786208E044
:10224000FFF7A2F802467B6AD31A022B01D90323B7
:102250000EE1394B1B6803F00073002BF0D1364BB5
:102260009A6A374B13407A68916A7A68D26A120187
:102270000A43314913438B627B681B6B013BC3F3F9
:1022800008027B685B6B013B5B029BB21A437B6875
:102290009B6B013B1B0403F4FE031A437B68DB6B5F
:1022A000013B1B0603F0FE43234913430B63224B00
:1022B000DB6A214A23F00103D3621F4B5A6B214B87
:1022C00013407A68926CD2001B4913434B631A4B3C
:1022D000DB6A23F00C027B681B6C17491343CB624B
:1022E000154BDB6A23F002027B685B6C12491343D7
:1022F000CB62114BDB6A104A43F48033D3620E4B3E
:10230000DB6A0D4A43F40033D3620B4BDB6A0A4AA3
:1023100043F48023D362084BDB6A074A43F001038E
:10232000D362054B1B68044A43F080731360FFF7C8
:102330002BF8786211E000BF0044025800480258B0
:102340000CFCFFFF0700FFFFFFF71EF802467B6A49
:10235000D31A022B01D903238AE0474B1B6803F0F1
:102360000073002BF0D082E0434B1B68424A23F0FD
:1023700080731360FFF708F8786208E0FFF704F84D
:1023800002467B6AD31A022B01D9032370E03A4B31
:102390001B6803F00073002BF0D168E0364B9B6A9A
:1023A0003B61354B1B6BFB607B685B6A012B31D05B
:1023B0003B6903F003027B689B6A9A422AD13B691E
:1023C0001B0903F03F027B68DB6A9A4222D1FB685B
:1023D000C3F308027B681B6B013B9A421AD1FB686E
:1023E0005B0A03F07F027B685B6B013B9A4211D171
:1023F000FB681B0C03F07F027B689B6B013B9A42DE
:1024000008D1FB681B0E03F07F027B68DB6B013B8E
:102410009A4201D001232BE0174B5B6BDB08C3F31F
:102420000C033B617B689B6C3A699A421FD0124B4C
:10243000DB6A114A23F00103D362FEF7A5FF78623D
:1024400000BFFEF7A1FF02467B6A9342F9D00A4B18
:102450005A6B0A4B13407A68926CD20006491343B8
:102460004B63054BDB6A044A43F00103D36200234C
:1024700018463037BD4680BD004402580700FFFFB4
:1024800080B586B000AF786039607B68002B01D1E1
:1024900001239CE18A4B1B6803F00F033A689A42C0
:1024A00010D9874B1B6823F00F0285493B68134303
:1024B0000B60834B1B6803F00F033A689A4201D00C
:1024C000012384E17B681B6803F00403002B10D018
:1024D0007B681A697B4B9B6903F070039A4208D9A9
:1024E000784B9B6923F070027B681B697549134325
:1024F0008B617B681B6803F00803002B10D07B689E
:102500005A69704BDB6903F070039A4208D96D4B2E
:10251000DB6923F070027B685B696A491343CB6116
:102520007B681B6803F01003002B10D07B689A694E
:10253000644BDB6903F4E0639A4208D9614BDB69C1
:1025400023F4E0627B689B695E491343CB617B683F
:102550001B6803F02003002B10D07B68DA69594B0D
:102560001B6A03F070039A4208D9564B1B6A23F08A
:1025700070027B68DB69534913430B627B681B68FD
:1025800003F00203002B10D07B68DA684D4B9B6987
:1025900003F00F039A4208D94A4B9B6923F00F02BC
:1025A0007B68DB68474913438B617B681B6803F0DA
:1025B0000103002B55D0434B9B6923F470627B6869
:1025C0009B68404913438B617B685B68022B07D192
:1025D0003C4B1B6803F40033002B21D10123F6E0B0
:1025E0007B685B68032B07D1364B1B6803F00073D5
:1025F000002B15D10123EAE07B685B68012B07D132
:10260000304B1B6803F48073002B09D10123DEE0FB
:102610002C4B1B6803F00403002B01D10123D6E0EF
:10262000284B1B6923F007027B685B68254913432D
:102630000B61FEF7A9FE78610AE0FEF7A5FE0246EF
:102640007B69D31A41F28832934201D90323BEE059
:102650001C4B1B6903F038027B685B68DB009A4205
:10266000EBD17B681B6803F00203002B10D07B6862
:10267000DA68144B9B6903F00F039A4208D2114B9E
:102680009B6923F00F027B68DB680E4913438B6163
:102690000B4B1B6803F00F033A689A4214D2084BA5
:1026A0001B6823F00F0206493B6813430B60044B81
:1026B0001B6803F00F033A689A4205D0012386E0B5
:1026C00000200052004402587B681B6803F004039A
:1026D000002B10D07B681A693F4B9B6903F0700395
:1026E0009A4208D23C4B9B6923F070027B681B69BD
:1026F000394913438B617B681B6803F00803002B87
:1027000010D07B685A69344BDB6903F070039A423E
:1027100008D2314BDB6923F070027B685B692E497C
:102720001343CB617B681B6803F01003002B10D0B0
:102730007B689A69284BDB6903F4E0639A4208D20C
:10274000254BDB6923F4E0627B689B6922491343D4
:10275000CB617B681B6803F02003002B10D07B68E3
:10276000DA691D4B1B6A03F070039A4208D21A4BB8
:102770001B6A23F070027B68DB69174913430B6205
:1027800000F09EF80246144B9B691B0A03F00F03EE
:102790001249CB5C03F01F0322FA03F33B610E4B9B
:1027A0009B6903F00F030D4AD35C03F01F033A69E2
:1027B00022FA03F30A4A13600A4A3B6913600A4B80
:1027C0001B681846FEF796FD0346FB73FB7B184615
:1027D0001837BD4680BD00BF00440258F8680008A5
:1027E00004000024000000242400002480B58CB0E4
:1027F00000AFF860B9607A60FB68002B2AD12D4BDE
:10280000D3F8E0302B4A43F00103C2F8E030294B03
:10281000D3F8E03003F00103BB61BB694FF4807370
:10282000FB6102233B620323BB6200237B62002324
:10283000FB6207F11C0319461F48FEF7A9FF1D4B59
:102840001B6923F0FE72B9687B680B431949134377
:102850000B612AE0174BD3F8E030164A43F004032B
:10286000C2F8E030134BD3F8E03003F004037B618F
:102870007B694FF40073FB6102233B620323BB625D
:1028800000237B620023FB6207F11C0319460B48FF
:10289000FEF77EFF074B1B6923F07E427B68D90160
:1028A000BB680B43034913430B6100BF3037BD4680
:1028B00080BD00BF004402580000025800080258C2
:1028C00080B489B000AFB34B1B6903F03803182BF9
:1028D00000F2558101A252F823F000BF41290008FF
:1028E0007F2B00087F2B00087F2B00087F2B000820
:1028F0007F2B00087F2B00087F2B0008672900082A
:102900007F2B00087F2B00087F2B00087F2B0008FF
:102910007F2B00087F2B00087F2B00086D29000803
:102920007F2B00087F2B00087F2B00087F2B0008DF
:102930007F2B00087F2B00087F2B000873290008DD
:10294000944B1B6803F02003002B09D0914B1B68AC
:10295000DB0803F00303904A22FA03F3BB6111E1A1
:102960008D4BBB610EE18D4BBB610BE18C4BBB61B1
:1029700008E1884B9B6A03F003037B61854B9B6AEC
:102980001B0903F03F033B61824BDB6A03F0010349
:10299000FB60804B5B6BDB08C3F30C03FA6802FB44
:1029A00003F307EE903AF8EE677AC7ED027A3B69D7
:1029B000002B00F0E1807B69022B00F083807B69B3
:1029C000022B00F2A1807B69002B03D07B69012BD5
:1029D00056D099E06F4B1B6803F02003002B2DD0DD
:1029E0006C4B1B68DB0803F003036B4A22FA03F30A
:1029F0007B607B6807EE903AF8EE676A3B6907EE0A
:102A0000903AF8EE677A86EEA77A624B1B6BC3F3B7
:102A1000080307EE903AF8EE676A97ED026ADFED79
:102A2000615AC6EE257A76EEA77AF7EE006A77EE5F
:102A3000A67A67EE277AC7ED077A87E03B6907EE4B
:102A4000903AF8EE677ADFED586A86EEA77A514B36
:102A50001B6BC3F3080307EE903AF8EE676A97ED35
:102A6000026ADFED505AC6EE257A76EEA77AF7EEC7
:102A7000006A77EEA67A67EE277AC7ED077A65E0F7
:102A80003B6907EE903AF8EE677ADFED486A86EE2A
:102A9000A77A404B1B6BC3F3080307EE903AF8EE9E
:102AA000676A97ED026ADFED3F5AC6EE257A76EE49
:102AB000A77AF7EE006A77EEA67A67EE277AC7ED77
:102AC000077A43E03B6907EE903AF8EE677ADFED6C
:102AD000386A86EEA77A2F4B1B6BC3F3080307EE09
:102AE000903AF8EE676A97ED026ADFED2E5AC6EE6D
:102AF000257A76EEA77AF7EE006A77EEA67A67EE89
:102B0000277AC7ED077A21E03B6907EE903AF8EEA5
:102B1000677ADFED266A86EEA77A1E4B1B6BC3F33E
:102B2000080307EE903AF8EE676A97ED026ADFED68
:102B30001D5AC6EE257A76EEA77AF7EE006A77EE92
:102B4000A67A67EE277AC7ED077A00BF114B1B6B99
:102B50005B0A03F07F0301333B603B6807EE903A6A
:102B6000B8EE677AD7ED076AC6EE877AFCEEE77AA9
:102B700017EE903ABB6105E00023BB6102E0074B12
:102B8000BB6100BFBB6918462437BD465DF8047BB6
:102B9000704700BF004402580090D00300093D0078
:102BA00040787D01000000460024744C0024744AE3
:102BB00020BCBE4B80B582B000AFFFF781FE02465D
:102BC000104B9B691B0A03F00F030F49CB5C03F00A
:102BD0001F0322FA03F37B600A4B9B6903F00F0388
:102BE000094AD35C03F01F037A6822FA03F3074A09
:102BF0001360074A7B681360044B1B68184608374C
:102C0000BD4680BD00440258F86800080400002456
:102C10000000002480B500AFFFF7CCFF0246064B52
:102C2000DB691B0903F007030449CB5C03F01F03B6
:102C300022FA03F3184680BD00440258F8680008E1
:102C400080B500AFFFF7B6FF0246064BDB691B0AF3
:102C500003F007030449CB5C03F01F0322FA03F3DC
:102C6000184680BD00440258F86800082DE9B04FAE
:102C7000CAB000AFC7F81401002387F8273100233A
:102C800087F82631D7F81431D3E9002302F0006425
:102C9000002554EA050349D0D7F814319B6EB3F5EB
:102CA000401F2FD0B3F5401F28D8B3F5001F1AD00E
:102CB000B3F5001F22D8002B03D0B3F5801F07D037
:102CC0001CE0B84BDB6AB74A43F40033D3621AE026
:102CD000D7F8143108330221184601F08FFC03465F
:102CE00087F827310FE0D7F814312833022118462E
:102CF00001F036FD034687F8273104E0012387F809
:102D0000273100E000BF97F82731002B0AD1A54BEF
:102D10001B6D23F44011D7F814319B6EA14A0B436D
:102D2000136503E097F8273187F82631D7F8143177
:102D3000D3E9002302F480784FF0000958EA090330
:102D400047D0D7F814319B6D042B2AD801A252F832
:102D500023F000BF692D0008772D00088D2D000895
:102D6000AB2D0008AB2D00088E4BDB6A8D4A43F477
:102D70000033D3621AE0D7F8143108330021184623
:102D800001F03CFC034687F827310FE0D7F81431F7
:102D900028330021184601F0E3FC034687F8273169
:102DA00004E0012387F8273100E000BF97F82731BE
:102DB000002B0AD17B4B1B6D23F00701D7F8143190
:102DC0009B6D784A0B43136503E097F8273187F82A
:102DD0002631D7F81431D3E9002302F4007A4FF0FA
:102DE000000B5AEA0B034CD0D7F81431DB6DB3F566
:102DF000807F30D0B3F5807F29D8C02B2DD0C02B59
:102E000025D8802B18D0802B21D8002B02D0402B26
:102E100007D01CE0634BDB6A624A43F40033D362A1
:102E20001CE0D7F8143108330021184601F0E6FB06
:102E3000034687F8273111E0D7F8143128330021F1
:102E4000184601F08DFC034687F8273106E0012380
:102E500087F8273102E000BF00E000BF97F8273174
:102E6000002B0AD14F4B1B6D23F4E071D7F81431BE
:102E7000DB6D4C4A0B43136503E097F8273187F865
:102E80002631D7F81431D3E9002302F48063C7F860
:102E900008310023C7F80C31D7E942120B4613431F
:102EA00053D0D7F81431D3F8A830B3F5000F35D08C
:102EB000B3F5000F2ED8B3F5C00F31D0B3F5C00F66
:102EC00028D8B3F5800F1AD0B3F5800F22D8002B85
:102ED00003D0B3F5001F07D01CE0324BDB6A314A48
:102EE00043F40033D3621CE0D7F8143108330021D7
:102EF000184601F083FB034687F8273111E0D7F825
:102F0000143128330021184601F02AFC034687F8C3
:102F1000273106E0012387F8273102E000BF00E0F7
:102F200000BF97F82731002B0BD11E4B9B6D23F46C
:102F30006001D7F81431D3F8A8301A4A0B439365CF
:102F400003E097F8273187F82631D7F81431D3E911
:102F5000002302F40063C7F800310023C7F80431EE
:102F6000D7E940120B46134356D0D7F81431D3F8A3
:102F7000AC30B3F1806F38D0B3F1806F31D8B3F19A
:102F8000407F34D0B3F1407F2BD8B3F1007F1DD008
:102F9000B3F1007F25D8002B06D0B3F1807F0AD093
:102FA0001FE000BF00440258A24BDB6AA14A43F471
:102FB0000033D3621CE0D7F81431083300211846DF
:102FC00001F01CFB034687F8273111E0D7F81431D4
:102FD00028330021184601F0C3FB034687F8273148
:102FE00006E0012387F8273102E000BF00E000BFC0
:102FF00097F82731002B0BD18E4B9B6D23F0E061AE
:10300000D7F81431D3F8AC308A4A0B43936503E008
:1030100097F8273187F82631D7F81431D3E9002300
:1030200002F00073C7F8F8300023C7F8FC30D7E986
:103030003E120B4613433AD0D7F81431DB6C302BD9
:103040001FD0302B19D8202B0CD0202B15D8002BBB
:1030500019D0102B11D1774BDB6A764A43F4003339
:10306000D36211E0D7F8143108330221184601F079
:10307000C5FA034687F8273106E0012387F8273190
:1030800002E000BF00E000BF97F82731002B0AD113
:10309000684BDB6C23F03001D7F81431DB6C654AE8
:1030A0000B43D36403E097F8273187F82631D7F82C
:1030B0001431D3E9002302F48053C7F8F030002321
:1030C000C7F8F430D7E93C120B46134351D0D7F878
:1030D00014311B6EB3F5804F35D0B3F5804F2ED829
:1030E000B3F5405F31D0B3F5405F28D8B3F5005F4A
:1030F0001AD0B3F5005F22D8002B03D0B3F5805F60
:1031000007D01CE04B4BDB6A4A4A43F40033D362DE
:103110001CE0D7F8143108330021184601F06EFA8C
:10312000034687F8273111E0D7F8143128330021FE
:10313000184601F015FB034687F8273106E0012306
:1031400087F8273102E000BF00E000BF97F8273181
:10315000002B0AD1374B1B6D23F4E041D7F8143113
:103160001B6E344A0B43136503E097F8273187F849
:103170002631D7F81431D3E9002302F40053C7F8FD
:10318000E8300023C7F8EC30D7E93A120B46134376
:1031900056D0D7F814315B6EB3F5A02F33D0B3F50A
:1031A000A02F2CD8B3F5802F2FD0B3F5802F26D8A1
:1031B000B3F5403F2BD0B3F5403F20D8B3F5003FE7
:1031C00012D0B3F5003F1AD8002B22D0B3F5803FC0
:1031D00015D1D7F8143108330121184601F00EFA41
:1031E000034687F8273115E0D7F814312833012139
:1031F000184601F0B5FA034687F827310AE00123A3
:1032000087F8273106E000BF04E000BF02E000BFFE
:1032100000E000BF97F82731002B0DD1054B1B6D47
:1032200023F4E021D7F814315B6E024A0B43136597
:1032300006E000BF0044025897F8273187F826318E
:10324000D7F81431D3E9002302F48043C7F8E03003
:103250000023C7F8E430D7E938120B46134355D0A2
:10326000D7F81431D3F8B030B3F1A04F33D0B3F165
:10327000A04F2CD8B3F1804F2FD0B3F1804F26D878
:10328000B3F1405F2BD0B3F1405F20D8B3F1005FC2
:1032900012D0B3F1005F1AD8002B22D0B3F1805FB7
:1032A00015D1D7F8143108330121184601F0A6F9D9
:1032B000034687F8273115E0D7F814312833012168
:1032C000184601F04DFA034687F827310AE001233A
:1032D00087F8273106E000BF04E000BF02E000BF2E
:1032E00000E000BF97F82731002B0BD1A34B9B6D5B
:1032F00023F0E041D7F81431D3F8B0309F4A0B43A4
:10330000936503E097F8273187F82631D7F8143111
:10331000D3E9002302F40043C7F8D8300023C7F8EC
:10332000DC30D7E936120B46134337D0D7F81431C7
:103330001B6FB3F1005F0ED0B3F1005F16D8002B06
:1033400018D0B3F1805F11D18C4BDB6A8B4A43F408
:103350000033D3620FE0D7F8143108330121184647
:1033600001F04CF9034687F8273104E0012387F880
:10337000273100E000BF97F82731002B0AD17F4B9F
:103380001B6D23F04051D7F814311B6F7B4A0B4360
:10339000136503E097F8273187F82631D7F8143101
:1033A000D3E9002302F08073C7F8D0300023C7F8B8
:1033B000D430D7E934120B46134339D0D7F814313F
:1033C0009B6C032B1CD801A252F823F0093400088F
:1033D000DD330008EB33000809340008674BDB6A73
:1033E000664A43F40033D3620FE0D7F81431083350
:1033F0000221184601F002F9034687F8273104E05C
:10340000012387F8273100E000BF97F82731002B10
:103410000AD15A4BDB6C23F00301D7F814319B6CB3
:10342000564A0B43D36403E097F8273187F82631D7
:10343000D7F81431D3E9002302F48003C7F8C83069
:103440000023C7F8CC30D7E932120B46134300F003
:103450009F804B4B1B684A4A43F480731360FDF70F
:1034600093FFC7F820010BE0FDF78EFF0246D7F867
:103470002031D31A642B03D9032387F8273105E0C1
:103480003F4B1B6803F48073002BEDD097F8273176
:10349000002B79D1394B1A6FD7F81431D3F8B430E7
:1034A000534003F44073002B15D0344B1B6F23F4AF
:1034B0004073C7F81C31314B1B6F304A43F48033E3
:1034C00013672E4B1B6F2D4A23F4803313672B4A4F
:1034D000D7F81C311367D7F81431D3F8B430B3F5EB
:1034E000807F18D1FDF750FFC7F820010DE0FDF7F0
:1034F0004BFF0246D7F82031D21A41F288339A4264
:1035000003D9032387F8273105E01C4B1B6F03F019
:103510000203002BEBD097F82731002B29D1D7F8E5
:103520001431D3F8B43003F44073B3F5407F0ED1B7
:10353000124B1B6923F47C51D7F81431D3F8B43003
:103540001A09104B13400D4A0B43136105E00B4B56
:103550001B690A4A23F47C531361084B196FD7F88F
:103560001431D3F8B430C3F30B03044A0B4313678D
:103570000EE097F8273187F8263109E00044025819
:1035800000480258CFFFFF0097F8273187F826310F
:10359000D7F81431D3E9002302F00103C7F8C03093
:1035A0000023C7F8C430D7E930120B46134300F0AC
:1035B0008980D7F81431DB6F282B6BD801A252F821
:1035C00023F000BF9D3600089536000895360008A8
:1035D000953600089536000895360008953600089F
:1035E00095360008693600089536000895360008BB
:1035F000953600089536000895360008953600087F
:10360000953600087F360008953600089536000884
:10361000953600089536000895360008953600085E
:10362000953600089D360008953600089536000846
:10363000953600089536000895360008953600083E
:10364000953600089D360008953600089536000826
:10365000953600089536000895360008953600081E
:10366000953600089D360008D7F81431083301213B
:10367000184600F0C3FF034687F827310FE0D7F85C
:10368000143128330121184601F06AF8034687F8FF
:10369000273104E0012387F8273100E000BF97F8C5
:1036A0002731002B0AD1BF4B5B6D23F03801D7F8CF
:1036B0001431DB6FBB4A0B43536503E097F82731A6
:1036C00087F82631D7F81431D3E9002302F002033A
:1036D000C7F8B8300023C7F8BC30D7E92E120B4624
:1036E000134341D0D7F814319B6F052B24D801A286
:1036F00052F823F0413700080D370008233700083F
:10370000413700084137000841370008D7F8143125
:1037100008330121184600F071FF034687F827316E
:103720000FE0D7F8143128330121184601F018F8BA
:10373000034687F8273104E0012387F8273100E0AA
:1037400000BF97F82731002B0AD1964B5B6D23F011
:103750000701D7F814319B6F924A0B43536503E07E
:1037600097F8273187F82631D7F81431D3E90023A9
:1037700002F00403C7F8B0300023C7F8B430D7E92B
:103780002C120B46134344D0D7F81431D3F894309D
:10379000052B25D801A252F823F000BFE937000815
:1037A000B5370008CB370008E9370008E9370008CB
:1037B000E9370008D7F8143108330121184600F022
:1037C0001DFF034687F827310FE0D7F8143128335F
:1037D0000121184600F0C4FF034687F8273104E0B2
:1037E000012387F8273100E000BF97F82731002B2D
:1037F0000BD16C4B9B6D23F00701D7F81431D3F834
:103800009430684A0B43936503E097F8273187F8B3
:103810002631D7F81431D3E9002302F02003C7F88A
:10382000A8300023C7F8AC30D7E92A120B4613435F
:1038300055D0D7F81431D3F89030B3F1A04F33D02E
:10384000B3F1A04F2CD8B3F1804F2FD0B3F1804FFC
:1038500026D8B3F1405F2BD0B3F1405F20D8B3F14D
:10386000005F12D0B3F1005F1AD8002B22D0B3F161
:10387000805F15D1D7F8143108330021184600F0C5
:10388000BDFE034687F8273115E0D7F814312833F9
:103890000221184600F064FF034687F827310AE04A
:1038A000012387F8273106E000BF04E000BF02E0F3
:1038B00000BF00E000BF97F82731002B0BD1394B38
:1038C0005B6D23F0E041D7F81431D3F89030354ADE
:1038D0000B43536503E097F8273187F82631D7F873
:1038E0001431D3E9002302F04003C7F8A0300023CD
:1038F000C7F8A430D7E928120B46134358D0D7F89D
:103900001431D3F89C30B3F5A05F33D0B3F5A05F8A
:103910002CD8B3F5805F2FD0B3F5805F26D8B3F5F0
:10392000406F2BD0B3F5406F20D8B3F5006F12D0A5
:10393000B3F5006F1AD8002B22D0B3F5806F15D1E4
:10394000D7F8143108330021184600F057FE03461B
:1039500087F8273115E0D7F81431283302211846AB
:1039600000F0FEFE034687F827310AE0012387F8BE
:10397000273106E000BF04E000BF02E000BF00E026
:1039800000BF97F82731002B0ED1064B9B6D23F417
:10399000E051D7F81431D3F89C30024A0B439365B9
:1039A00006E000BF0044025897F8273187F8263117
:1039B000D7F81431D3E9002302F08003C7F8983018
:1039C0000023C7F89C30D7E926120B46134355D085
:1039D000D7F81431D3F8A030B3F5204F33D0B3F576
:1039E000204F2CD8B3F5004F2FD0B3F5004F26D879
:1039F000B3F5C04F2BD0B3F5C04F20D8B3F5804FEF
:103A000012D0B3F5804F1AD8002B22D0B3F5005F47
:103A100015D1D7F8143108330021184600F0EEFD17
:103A2000034687F8273115E0D7F8143128330221EF
:103A3000184600F095FE034687F827310AE0012377
:103A400087F8273106E000BF04E000BF02E000BFB6
:103A500000E000BF97F82731002B0BD1A14B9B6DE5
:103A600023F46041D7F81431D3F8A0309D4A0B43BA
:103A7000936503E097F8273187F82631D7F814319A
:103A8000D3E9002302F00803C7F890300023C7F8F9
:103A90009430D7E924120B4613431ED0D7F81431C3
:103AA000D3F88430B3F5805F0CD1D7F814312833C4
:103AB0000221184600F054FE0346002B02D00123D9
:103AC00087F82631874B5B6D23F44051D7F81431CA
:103AD000D3F88430834A0B435365D7F81431D3E9C4
:103AE000002302F01003C7F888300023C7F88C3099
:103AF000D7E922120B4613431ED0D7F81431D3F85E
:103B00009830B3F5807F0CD1D7F8143128330221D7
:103B1000184600F025FE0346002B02D0012387F84B
:103B20002631704B9B6D23F44071D7F81431D3F8D4
:103B300098306C4A0B439365D7F81431D3E90023CE
:103B400002F40023C7F880300023C7F88430D7E997
:103B500020120B4613433ED0D7F81431D3F8A430CB
:103B6000B3F5003F22D0B3F5003F1BD8002B03D0A4
:103B7000B3F5803F0BD015E0D7F81431083300219E
:103B8000184600F03BFD034687F827310FE0D7F8D1
:103B9000143128330221184600F0E2FD034687F86D
:103BA000273104E0012387F8273100E000BF97F8B0
:103BB0002731002B0BD14B4B9B6D23F44031D7F8B1
:103BC0001431D3F8A430474A0B43936503E097F8C8
:103BD000273187F82631D7F81431D3E9002302F4CE
:103BE0008023BB670023FB67D7E91E120B461343F4
:103BF0003BD0D7F81431D3F88830B3F5401F1FD02D
:103C0000B3F5401F18D8B3F5801F03D0B3F5001FDC
:103C100007D011E0334BDB6A324A43F40033D362FE
:103C20000FE0D7F8143128330121184600F098FD31
:103C3000034687F8273104E0012387F8273100E0A5
:103C400000BF97F82731002B0BD1264B5B6D23F477
:103C50004011D7F81431D3F88830224A0B4353650A
:103C600003E097F8273187F82631D7F81431D3E9E4
:103C7000002302F480333B6700237B67D7E91C12E3
:103C80000B46134334D0D7F814311B6D002B03D0EF
:103C9000B3F5803F07D011E0124BDB6A114A43F4C1
:103CA0000033D3620EE0D7F81431083302211846EE
:103CB00000F0A4FC034687F8273103E0012387F8CE
:103CC000273100BF97F82731002B0DD1054BDB6C56
:103CD00023F48031D7F814311B6D024A0B43D364AF
:103CE00006E000BF0044025897F8273187F82631D4
:103CF000D7F81431D3E9002302F00053BB66002348
:103D0000FB66D7E91A120B4613430CD0D7F81431CF
:103D100028330221184600F023FD0346002B02D071
:103D2000012387F82631D7F81431D3E9002302F4B0
:103D300000333B6600237B66D7E918120B4613431A
:103D400038D0D7F81431D3F88030B3F5407F18D08D
:103D5000B3F5407F11D8B3F5007F14D0B3F5007FE1
:103D60000BD8002B11D0B3F5807F06D1C34BDB6A93
:103D7000C24A43F40033D36208E0012387F82731B5
:103D800004E000BF02E000BF00E000BF97F8273169
:103D9000002B0BD1B94B5B6D23F44071D7F8143174
:103DA000D3F88030B54A0B43536503E097F82731C9
:103DB00087F82631D7F81431D3E9002302F48013B1
:103DC000BB650023FB65D7E916120B46134309D0E8
:103DD000AA4B1B6D23F00041D7F814315B6FA74A43
:103DE0000B431365D7F81431D3E9002302F0805355
:103DF0003B6500237B65D7E914120B4613430AD0B9
:103E00009E4B1B6923F48041D7F81431D3F8B830A6
:103E10009A4A0B431361D7F81431D3E9002302F413
:103E20000013BB640023FB64D7E912120B46134353
:103E300009D0924B1B6D23F08071D7F81431DB6EE3
:103E40008E4A0B431365D7F81431D3E9002302F0EF
:103E500080433B6400237B64D7E910120B46134375
:103E60000ED0864B1B69854A23F400431361834BB4
:103E70001969D7F81431D3F8BC30804A0B43136169
:103E8000D7F81431D3E9002302F00043BB630023C9
:103E9000FB63D7E90E120B46134309D0774BDB6C5B
:103EA00023F04051D7F814315B6D744A0B43D3644F
:103EB000D7F81431D3E9002302F400033B63002355
:103EC0007B63D7E90C120B4613430AD06B4B5B6D37
:103ED00023F44001D7F81431D3F88C30674A0B43F0
:103EE0005365D7F81431D3E900230021B96203F0F8
:103EF0000103FB62D7E90A120B46134311D0D7F82E
:103F0000143108330021184600F078FB034687F887
:103F1000273197F82731002B03D097F8273187F8FE
:103F20002631D7F81431D3E900230021396203F098
:103F300002037B62D7E908120B46134311D0D7F86E
:103F4000143108330121184600F058FB034687F866
:103F5000273197F82731002B03D097F8273187F8BE
:103F60002631D7F81431D3E900230021B96103F0D9
:103F70000403FB61D7E906120B46134311D0D7F8AF
:103F8000143108330221184600F038FB034687F845
:103F9000273197F82731002B03D097F8273187F87E
:103FA0002631D7F81431D3E900230021396103F019
:103FB00008037B61D7E904120B46134311D0D7F8ED
:103FC000143128330021184600F0CAFB034687F855
:103FD000273197F82731002B03D097F8273187F83E
:103FE0002631D7F81431D3E900230021B96003F05A
:103FF0001003FB60D7E902120B46134311D0D7F828
:10400000143128330121184600F0AAFB034687F833
:10401000273197F82731002B03D097F8273187F8FD
:104020002631D7F81431D3E900230021396003F099
:1040300020037B60D7E900120B46134311D0D7F859
:10404000143128330221184600F08AFB034687F812
:10405000273197F82731002B03D097F8273187F8BD
:10406000263197F82631002B01D1002300E00123EF
:10407000184607F59477BD46BDE8B08F0044025856
:1040800080B500AFFEF796FD0246064B1B6A1B0982
:1040900003F007030449CB5C03F01F0322FA03F388
:1040A000184680BD00440258F868000880B489B002
:1040B00000AF7860A14B9B6A03F00303BB619F4B89
:1040C0009B6A1B0B03F03F037B619C4BDB6A1B0964
:1040D00003F001033B61994BDB6BDB08C3F30C037B
:1040E0003A6902FB03F307EE903AF8EE677AC7ED00
:1040F000037A7B69002B00F01181BB69022B00F071
:104100008380BB69022B00F2A180BB69002B03D026
:10411000BB69012B56D099E0884B1B6803F0200344
:10412000002B2DD0854B1B68DB0803F00303844A6A
:1041300022FA03F3BB60BB6807EE903AF8EE676AB9
:104140007B6907EE903AF8EE677A86EEA77A7B4BAA
:104150009B6BC3F3080307EE903AF8EE676A97ED9E
:10416000036ADFED785AC6EE257A76EEA77AF7EE87
:10417000006A77EEA67A67EE277AC7ED077A87E0BE
:104180007B6907EE903AF8EE677ADFED6F6A86EEAC
:10419000A77A6A4B9B6BC3F3080307EE903AF8EEDD
:1041A000676A97ED036ADFED675AC6EE257A76EE09
:1041B000A77AF7EE006A77EEA67A67EE277AC7ED60
:1041C000077A65E07B6907EE903AF8EE677ADFEDF3
:1041D0005F6A86EEA77A594B9B6BC3F3080307EE21
:1041E000903AF8EE676A97ED036ADFED565AC6EE2D
:1041F000257A76EEA77AF7EE006A77EEA67A67EE72
:10420000277AC7ED077A43E07B6907EE903AF8EE2C
:10421000677ADFED4F6A86EEA77A484B9B6BC3F354
:10422000080307EE903AF8EE676A97ED036ADFED50
:10423000455AC6EE257A76EEA77AF7EE006A77EE53
:10424000A67A67EE277AC7ED077A21E07B6907EE49
:10425000903AF8EE677ADFED3D6A86EEA77A374B43
:104260009B6BC3F3080307EE903AF8EE676A97ED8D
:10427000036ADFED345AC6EE257A76EEA77AF7EEBA
:10428000006A77EEA67A67EE277AC7ED077A00BF55
:104290002A4B9B6B5B0A03F07F0307EE903AF8EE24
:1042A000677AB7EE007A37EE877AD7ED076AC6EEFF
:1042B000877AFCEEE77A17EE902A7B681A601F4B2C
:1042C0009B6B1B0C03F07F0307EE903AF8EE677AC6
:1042D000B7EE007A37EE877AD7ED076AC6EE877AAF
:1042E000FCEEE77A17EE902A7B685A60134B9B6BC3
:1042F0001B0E03F07F0307EE903AF8EE677AB7EEF5
:10430000007A37EE877AD7ED076AC6EE877AFCEE39
:10431000E77A17EE902A7B689A6008E07B680022B3
:104320001A607B6800225A607B6800229A6000BF96
:104330002437BD465DF8047B704700BF0044025837
:104340000090D003000000460024744C0024744AFE
:1043500020BCBE4B80B489B000AF7860A14B9B6A93
:1043600003F00303BB619F4B9B6A1B0D03F03F03EC
:104370007B619C4BDB6A1B0A03F001033B61994B99
:104380005B6CDB08C3F30C033A6902FB03F307EE33
:10439000903AF8EE677AC7ED037A7B69002B00F05C
:1043A0001181BB69022B00F08380BB69022B00F2F4
:1043B000A180BB69002B03D0BB69012B56D099E0CB
:1043C000884B1B6803F02003002B2DD0854B1B6806
:1043D000DB0803F00303844A22FA03F3BB60BB68E3
:1043E00007EE903AF8EE676A7B6907EE903AF8EECE
:1043F000677A86EEA77A7B4B1B6CC3F3080307EE44
:10440000903AF8EE676A97ED036ADFED785AC6EEE8
:10441000257A76EEA77AF7EE006A77EEA67A67EE4F
:10442000277AC7ED077A87E07B6907EE903AF8EEC6
:10443000677ADFED6F6A86EEA77A6A4B1B6CC3F36F
:10444000080307EE903AF8EE676A97ED036ADFED2E
:10445000675AC6EE257A76EEA77AF7EE006A77EE0F
:10446000A67A67EE277AC7ED077A65E07B6907EEE3
:10447000903AF8EE677ADFED5F6A86EEA77A594BDD
:104480001B6CC3F3080307EE903AF8EE676A97EDEA
:10449000036ADFED565AC6EE257A76EEA77AF7EE76
:1044A000006A77EEA67A67EE277AC7ED077A43E0CF
:1044B0007B6907EE903AF8EE677ADFED4F6A86EE99
:1044C000A77A484B1B6CC3F3080307EE903AF8EE4B
:1044D000676A97ED036ADFED455AC6EE257A76EEF8
:1044E000A77AF7EE006A77EEA67A67EE277AC7ED2D
:1044F000077A21E07B6907EE903AF8EE677ADFED04
:104500003D6A86EEA77A374B1B6CC3F3080307EEB0
:10451000903AF8EE676A97ED036ADFED345AC6EE1B
:10452000257A76EEA77AF7EE006A77EEA67A67EE3E
:10453000277AC7ED077A00BF2A4B1B6C5B0A03F092
:104540007F0307EE903AF8EE677AB7EE007A37EE1F
:10455000877AD7ED076AC6EE877AFCEEE77A17EE20
:10456000902A7B681A601F4B1B6C1B0C03F07F03A7
:1045700007EE903AF8EE677AB7EE007A37EE877A70
:10458000D7ED076AC6EE877AFCEEE77A17EE902A37
:104590007B685A60134B1B6C1B0E03F07F0307EE06
:1045A000903AF8EE677AB7EE007A37EE877AD7ED71
:1045B000076AC6EE877AFCEEE77A17EE902A7B68E8
:1045C0009A6008E07B6800221A607B6800225A60CB
:1045D0007B6800229A6000BF2437BD465DF8047BEB
:1045E000704700BF004402580090D003000000460E
:1045F0000024744C0024744A20BCBE4B80B584B0A7
:1046000000AF786039600023FB73534B9B6A03F063
:104610000303032B01D1012399E04F4B1B684E4A42
:1046200023F080631360FCF7AFFEB86008E0FCF78E
:10463000ABFE0246BB68D31A022B01D9032386E0E6
:10464000454B1B6803F00063002BF0D1424B9B6A83
:1046500023F47C327B681B681B033F4913438B6246
:104660007B685B68013BC3F308027B689B68013B86
:104670005B029BB21A437B68DB68013B1B0403F4BB
:10468000FE031A437B681B69013B1B0603F0FE43D4
:10469000314913438B63304BDB6A23F0C0027B68E4
:1046A0005B692D491343CB622B4BDB6A23F020025D
:1046B0007B689B6928491343CB62274BDB6A264AF8
:1046C00023F01003D362244BDA6B244B13407A6837
:1046D000D269D20020491343CB631F4BDB6A1E4AC9
:1046E00043F01003D3623B68002B06D11A4BDB6A00
:1046F000194A43F40023D3620FE03B68012B06D133
:10470000154BDB6A144A43F48013D36205E0124B65
:10471000DB6A114A43F40013D3620F4B1B680E4A45
:1047200043F080631360FCF72FFEB86008E0FCF7ED
:104730002BFE0246BB68D31A022B01D9032306E0E5
:10474000054B1B6803F00063002BF0D0FB7B184681
:104750001037BD4680BD00BF004402580700FFFF70
:1047600080B584B000AF786039600023FB73534B91
:104770009B6A03F00303032B01D1012399E04F4B04
:104780001B684E4A23F080531360FCF7FDFDB860B0
:1047900008E0FCF7F9FD0246BB68D31A022B01D9E9
:1047A000032386E0454B1B6803F00053002BF0D138
:1047B000424B9B6A23F07C727B681B681B053F4958
:1047C00013438B627B685B68013BC3F308027B6821
:1047D0009B68013B5B029BB21A437B68DB68013B31
:1047E0001B0403F4FE031A437B681B69013B1B0691
:1047F00003F0FE43314913430B64304BDB6A23F46F
:1048000040627B685B692D491343CB622B4BDB6AAB
:1048100023F400727B689B6928491343CB62274BC2
:10482000DB6A264A23F48073D362244B5A6C244BF0
:1048300013407A68D269D200204913434B641F4B5E
:10484000DB6A1E4A43F48073D3623B68002B06D1B7
:104850001A4BDB6A194A43F48003D3620FE03B68CA
:10486000012B06D1154BDB6A144A43F40003D362D3
:1048700005E0124BDB6A114A43F08073D3620F4BA1
:104880001B680E4A43F080531360FCF77DFDB8604F
:1048900008E0FCF779FD0246BB68D31A022B01D968
:1048A000032306E0054B1B6803F00053002BF0D0F8
:1048B000FB7B18461037BD4680BD00BF0044025840
:1048C0000700FFFF80B584B000AF78607B68002BE5
:1048D00001D1012354E07B685B7ADBB2002B05D168
:1048E0007B6800221A727868FCF7A4F87B680222C1
:1048F0005A727B681B681B6823F020017B685A682A
:104900007B681B680A431A607B681B681A687B68AF
:104910001B6842F004021A607B681B685B6803F046
:104920004003402B04D17B6804225A72012327E004
:10493000FCF72AFDF86015E0FCF726FD0246FB684F
:10494000D31A022B0ED97B681B685B6803F0010346
:10495000012B07D07B6804225A727B680222DA603E
:1049600001230DE07B681B685B6803F00103012BEA
:10497000E2D17B6801225A727B680022DA60002350
:1049800018461037BD4680BD80B582B000AF786054
:104990007B68002B01D1012342E07B68D3F888308B
:1049A000002B06D17B68002283F88420786800F011
:1049B0003BF87B682422C3F888207B681B681A6850
:1049C0007B681B6822F001021A607B689B6A002BDF
:1049D00002D0786800F028FE786800F0BDF8034641
:1049E000012B01D101231BE07B681B685A687B689F
:1049F0001B6822F490425A607B681B689A687B6847
:104A00001B6822F02A029A607B681B681A687B6820
:104A10001B6842F001021A60786800F0A7FE0346A6
:104A200018460837BD4680BD80B483B000AF7860BB
:104A300000BF0C37BD465DF8047B704780B58AB077
:104A400002AFF860B9603B601346FB80FB68D3F8A7
:104A50008830202B7BD1BB68002B02D0FB88002B39
:104A600001D1012374E0FB680022C3F89020FB68A9
:104A70002122C3F88820FCF787FC7861FB68FA885C
:104A8000A3F85420FB68FA88A3F85620FB689B68BB
:104A9000B3F5805F08D1FB681B69002B04D10023AC
:104AA000FB61BB68BB6103E0BB68FB610023BB61CA
:104AB00030E03B6800937B6900228021F86800F0B9
:104AC000FFFE0346002B05D0FB682022C3F8882098
:104AD00003233DE0FB69002B0BD1BB691B881A4601
:104AE000FB681B68C2F308029A62BB690233BB61B0
:104AF00007E0FB691A78FB681B689A62FB6901335F
:104B0000FB61FB68B3F856309BB2013B9AB2FB687D
:104B1000A3F85620FB68B3F856309BB2002BC8D1DF
:104B20003B6800937B6900224021F86800F0C8FED2
:104B30000346002B05D0FB682022C3F888200323FE
:104B400006E0FB682022C3F88820002300E002234F
:104B500018462037BD4680BD2DE9B04F92B000AF5A
:104B60007861002387F842307B699A687B691B690A
:104B70001A437B695B691A437B69DB6913437B6476
:104B80007B691B681A68BE4B13407A691268796C9E
:104B90000B4313607B691B685B6823F440517B699E
:104BA000DA687B691B680A435A607B699B697B648E
:104BB0007B691B68B34A934204D07B691B6A7A6C99
:104BC00013437B647B691B689A68AF4B13407A6917
:104BD0001268796C0B4393607B691B68DB6A23F076
:104BE0000F017B695A6A7B691B680A43DA627B6939
:104BF0001B68A64A934277D1A54B5B6D03F038033F
:104C0000282B6DD801A252F823F000BFB14C000848
:104C1000E14C0008E14C0008E14C0008E14C0008C0
:104C2000E14C0008E14C0008E14C0008B94C0008D8
:104C3000E14C0008E14C0008E14C0008E14C0008A0
:104C4000E14C0008E14C0008E14C0008C14C0008B0
:104C5000E14C0008E14C0008E14C0008E14C000880
:104C6000E14C0008E14C0008E14C0008C94C000888
:104C7000E14C0008E14C0008E14C0008E14C000860
:104C8000E14C0008E14C0008E14C0008D14C000860
:104C9000E14C0008E14C0008E14C0008E14C000840
:104CA000E14C0008E14C0008E14C0008D94C000838
:104CB000012387F8433022E2042387F843301EE2C1
:104CC000082387F843301AE2102387F8433016E2AE
:104CD000202387F8433012E2402387F843300EE266
:104CE000802387F843300AE27B691B68694A934254
:104CF00030D1674B5B6D03F00703052B26D801A26B
:104D000052F823F01D4D0008254D00082D4D0008D8
:104D1000354D00083D4D0008454D0008002387F83B
:104D20004330ECE1042387F84330E8E1082387F8B7
:104D30004330E4E1102387F84330E0E1202387F893
:104D40004330DCE1402387F84330D8E1802387F803
:104D50004330D4E17B691B684F4A934230D14C4BBE
:104D60005B6D03F00703052B26D801A252F823F050
:104D7000894D0008914D0008994D0008A14D00088B
:104D8000A94D0008B14D0008002387F84330B6E173
:104D9000042387F84330B2E1082387F84330AEE1BB
:104DA000102387F84330AAE1202387F84330A6E197
:104DB000402387F84330A2E1802387F843309EE107
:104DC0007B691B68354A934230D1314B5B6D03F0F0
:104DD0000703052B26D801A252F823F0F54D000851
:104DE000FD4D0008054E00080D4E0008154E000848
:104DF0001D4E0008002387F8433080E1042387F824
:104E000043307CE1082387F8433078E1102387F8AA
:104E1000433074E1202387F8433070E1402387F862
:104E200043306CE1802387F8433068E17B691B687D
:104E30001B4A934242D1164B5B6D03F00703052BCF
:104E400038D801A252F823F0614E0008694E0008DC
:104E5000714E0008794E0008A54E0008AD4E0008BE
:104E6000002387F843304AE1042387F8433046E1C2
:104E7000082387F8433042E1102387F843303EE1AE
:104E8000F369FFCF000C0058FFF4FF110010014040
:104E9000004402580044004000480040004C0040DC
:104EA00000500040202387F8433028E1402387F852
:104EB000433024E1802387F8433020E17B691B687D
:104EC000CB4A934276D1CB4B5B6D03F03803282B52
:104ED0006CD801A252F823F07D4F0008AD4F0008B6
:104EE000AD4F0008AD4F0008AD4F0008AD4F0008B2
:104EF000AD4F0008AD4F0008854F0008AD4F0008CA
:104F0000AD4F0008AD4F0008AD4F0008AD4F000891
:104F1000AD4F0008AD4F00088D4F0008AD4F0008A1
:104F2000AD4F0008AD4F0008AD4F0008AD4F000871
:104F3000AD4F0008AD4F0008954F0008AD4F000879
:104F4000AD4F0008AD4F0008AD4F0008AD4F000851
:104F5000AD4F0008AD4F00089D4F0008AD4F000851
:104F6000AD4F0008AD4F0008AD4F0008AD4F000831
:104F7000AD4F0008AD4F0008A54F0008012387F88A
:104F80004330BCE0042387F84330B8E0082387F8B7
:104F90004330B4E0102387F84330B0E0202387F893
:104FA0004330ACE0402387F84330A8E0802387F803
:104FB0004330A4E07B691B688F4A934230D18D4B0C
:104FC0005B6D03F00703052B26D801A252F823F0EE
:104FD000E94F0008F14F0008F94F000801500008A0
:104FE0000950000811500008002387F8433086E07C
:104FF000042387F8433082E0082387F843307EE0BB
:10500000102387F843307AE0202387F8433076E096
:10501000402387F8433072E0802387F843306EE006
:105020007B691B68754A934230D1724B5B6D03F00C
:105030000703052B26D801A252F823F0555000088B
:105040005D500008655000086D500008755000085C
:105050007D500008002387F8433050E0042387F890
:1050600043304CE0082387F8433048E0102387F8AA
:10507000433044E0202387F8433040E0402387F862
:1050800043303CE0802387F8433038E07B691B687D
:105090005B4A934230D1574B9B6D03F00703052BBE
:1050A00026D801A252F823F0C1500008C9500008C8
:1050B000D1500008D9500008E1500008E95000081C
:1050C000022387F843301AE0042387F8433016E0C0
:1050D000082387F8433012E0102387F843300EE0AE
:1050E000202387F843300AE0402387F8433006E066
:1050F000802387F8433002E0802387F843307B69C0
:105100001B683F4A934240F0F88097F84330202BC9
:1051100046DC022BC0F28280023B1E2B7ED801A20D
:1051200052F823F0A75100081D520008AF510008A3
:105130001D5200081D5200081D520008BF510008F2
:105140001D5200081D5200081D5200081D52000883
:105150001D5200081D5200081D520008CF510008C2
:105160001D5200081D5200081D5200081D52000863
:105170001D5200081D5200081D5200081D52000853
:105180001D5200081D5200081D5200081D52000843
:105190001D5200081D5200081D5200080F52000841
:1051A000402B37D03AE0FEF76BFFF8633CE007F1A5
:1051B00024031846FEF77AFFBB6AFB6334E007F16D
:1051C00018031846FFF7C6F8FB69FB632CE0094B90
:1051D0001B6803F02003002B16D0064B1B68DB086E
:1051E00003F00303074A22FA03F3FB631CE000BF4A
:1051F000001401400044025800780040007C004048
:10520000000C00580090D0039D4BFB630CE09D4BBD
:10521000FB6309E04FF40043FB6305E00023FB63FD
:10522000012387F8423000BFFB6B002B00F0DE81CA
:105230007B695B6A944A32F813301A46FB6BB3FB06
:10524000F2F33B637B695A6813465B0013443A6B85
:105250009A4205D37B695B681B033A6B9A4203D978
:10526000012387F84230C1E1FB6B0022BB60FA608A
:105270007B695B6A844A32F813309BB200223B6040
:105280007A60D7E90023D7E90201FBF779F80246F3
:105290000B46104619464FF000024FF000030B0278
:1052A00043EA1063020279694968490800200C4604
:1052B000054612EB040843EB05097B695B68002295
:1052C0009A46934652465B4640464946FBF758F895
:1052D00002460B461346BB63BB6BB3F5407F08D356
:1052E000BB6BB3F5801F04D27B691B68BA6BDA60B5
:1052F0007CE1012387F8423078E17B69DB69B3F513
:10530000004F40F0C58097F84330202B48DC002B3D
:105310007BDB202B79D801A252F823F0A753000899
:10532000AF5300080B5400080B540008B753000893
:105330000B5400080B5400080B540008C753000816
:105340000B5400080B5400080B5400080B540008C1
:105350000B5400080B5400080B540008D7530008E6
:105360000B5400080B5400080B5400080B540008A1
:105370000B5400080B5400080B5400080B54000891
:105380000B5400080B5400080B5400080B54000881
:105390000B5400080B5400080B540008FD53000880
:1053A000402B2ED031E0FDF735FCF86333E0FDF7FC
:1053B00047FCF8632FE007F124031846FEF776FE5A
:1053C000BB6AFB6327E007F118031846FEF7C2FF2C
:1053D000FB69FB631FE02D4B1B6803F02003002BD0
:1053E00009D02A4B1B68DB0803F00303244A22FA86
:1053F00003F3FB630FE0224BFB630CE0214BFB63E9
:1054000009E04FF40043FB6305E00023FB63012345
:1054100087F8423000BFFB6B002B00F0E7807B6910
:105420005B6A194A32F813301A46FB6BB3FBF2F38E
:105430005A007B695B685B081A447B695B68B2FB56
:10544000F3F3BB63BB6B0F2B16D9BB6BB3F5803F7C
:1054500012D2BB6B9BB223F00F03FB86BB6B5B08C6
:105460009BB203F007039AB2FB8E1343FB867B6962
:105470001B68FA8EDA60B9E0012387F84230B5E0A4
:105480000090D00300093D00146900080044025850
:1054900097F84330202B49DC002B7CDB202B7AD87B
:1054A00001A252F823F000BF335500083B55000815
:1054B0009755000897550008435500089755000870
:1054C0009755000897550008535500089755000850
:1054D00097550008975500089755000897550008FC
:1054E0009755000897550008635500089755000820
:1054F00097550008975500089755000897550008DC
:1055000097550008975500089755000897550008CB
:1055100097550008975500089755000897550008BB
:10552000975500089755000889550008402B2ED044
:1055300031E0FDF76FFBF86333E0FDF781FBF863C3
:105540002FE007F124031846FEF7B0FDBB6AFB63AA
:1055500027E007F118031846FEF7FCFEFB69FB6322
:105560001FE02D4B1B6803F02003002B09D02A4BB2
:105570001B68DB0803F00303284A22FA03F3FB63EA
:105580000FE0264BFB630CE0254BFB6309E04FF477
:105590000043FB6305E00023FB63012387F84230EF
:1055A00000BFFB6B002B21D07B695B6A1D4A32F880
:1055B00013301A46FB6BB3FBF2F27B695B685B0846
:1055C0001A447B695B68B2FBF3F3BB63BB6B0F2BC5
:1055D00009D9BB6BB3F5803F05D2BB6B9AB27B692F
:1055E0001B68DA6002E0012387F842307B69012200
:1055F000A3F86A207B690122A3F868207B69002256
:105600005A677B6900229A6797F8423018464837F4
:10561000BD46BDE8B08F00BF004402580090D003E3
:1056200000093D001469000880B483B000AF7860C1
:105630007B689B6A03F00803002B0AD07B681B6819
:105640005B6823F400417B689A6B7B681B680A43A4
:105650005A607B689B6A03F00103002B0AD07B68C9
:105660001B685B6823F400317B68DA6A7B681B681F
:105670000A435A607B689B6A03F00203002B0AD03E
:105680007B681B685B6823F480317B681A6B7B68DE
:105690001B680A435A607B689B6A03F00403002B73
:1056A0000AD07B681B685B6823F480217B685A6B97
:1056B0007B681B680A435A607B689B6A03F010038F
:1056C000002B0AD07B681B689B6823F480517B68A1
:1056D000DA6B7B681B680A439A607B689B6A03F0FD
:1056E0002003002B0AD07B681B689B6823F40051C1
:1056F0007B681A6C7B681B680A439A607B689B6AAC
:1057000003F04003002B1AD07B681B685B6823F40E
:1057100080117B685A6C7B681B680A435A607B68FF
:105720005B6CB3F5801F0AD17B681B685B6823F450
:10573000C0017B689A6C7B681B680A435A607B686F
:105740009B6A03F08003002B0AD07B681B685B68B0
:1057500023F400217B68DA6C7B681B680A435A607B
:1057600000BF0C37BD465DF8047B704780B598B02C
:1057700002AF78607B680022C3F89020FBF704FE3C
:1057800078657B681B681B6803F00803082B2FD122
:105790006FF07E4300937B6D00224FF40011786818
:1057A00000F08EF80346002B22D07B681B68BB6399
:1057B000BB6B53E8003F7B637B6B23F080033B654F
:1057C0007B681B681A463B6D7B643A64396C7A6C63
:1057D00041E80023FB63FB6B002BE6D17B682022B2
:1057E000C3F888207B68002283F88420032363E0C9
:1057F0007B681B681B6803F00403042B49D16FF01E
:105800007E4300937B6D00224FF48001786800F0A6
:1058100057F80346002B3CD07B681B687B627B6A91
:1058200053E8003F3B623B6A23F49073FB647B6860
:105830001B681A46FB6C3B63FA62F96A3A6B41E8F3
:105840000023BB62BB6A002BE6D17B681B68083370
:105850003B613B6953E8003FFB60FB6823F00103B9
:10586000BB647B681B680833BA6CFA61BB61B969B9
:10587000FA6941E800237B617B69002BE5D17B68F5
:105880002022C3F88C207B68002283F88420032325
:1058900012E07B682022C3F888207B682022C3F8AE
:1058A0008C207B680022DA667B6800221A677B689E
:1058B000002283F88420002318465837BD4680BD57
:1058C00080B584B000AFF860B9603B601346FB71EF
:1058D0004FE0BB69B3F1FF3F4BD0FBF755FD0246EC
:1058E0003B68D31ABA699A4202D3BB69002B01D133
:1058F00003234EE0FB681B681B6803F00403002BC6
:1059000037D0BB68802B34D0BB68402B31D0FB68CC
:105910001B68DB6903F00803082B10D1FB681B68C8
:1059200008221A62F86800F039F8FB680822C3F808
:105930009020FB68002283F88420012329E0FB6883
:105940001B68DB6903F40063B3F5006F11D1FB68DA
:105950001B684FF400621A62F86800F01FF8FB68D9
:105960002022C3F89020FB68002283F884200323C0
:105970000FE0FB681B68DA69BB681340BA689A429B
:105980000CBF01230023DBB21A46FB799A42A0D058
:10599000002318461037BD4680BD000080B495B086
:1059A00000AF78607B681B687B637B6B53E8003FCC
:1059B0003B633B6B23F49073FB647B681B681A4664
:1059C000FB6C3B64FA63F96B3A6C41E80023BB6300
:1059D000BB6B002BE6D17B681B6808333B623B6ADC
:1059E00053E8003FFB61FA691E4B1340BB647B68C0
:1059F0001B680833BA6CFA62BB62B96AFA6A41E89A
:105A000000237B627B6A002BE5D17B68DB6E012B78
:105A100018D17B681B68FB60FB6853E8003FBB60E4
:105A2000BB6823F010037B647B681B681A467B6CA1
:105A3000BB617A617969BA6941E800233B613B69DE
:105A4000002BE6D17B682022C3F88C207B680022E3
:105A5000DA667B6800225A6700BF5437BD465DF89E
:105A6000047B7047FEFFFFEF002310B50446C0E93A
:105A70000033C0E90433836081814366C28183615E
:105A8000194608225C3000F006F90D4B63620D4B9D
:105A9000A3620D4BE3620D4B23630D4B24629C42CA
:105AA00006D003F16802944202D0D0339C4205D163
:105AB00004F15800BDE8104000F066B910BD00BF09
:105AC000115C0008335C00086B5C00088F5C000808
:105AD00074010024024A0349034800F069B800BF7A
